:020000040800F2
:10000000000002202D5000087D5000087D5000089F
:100010007D5000087D5000087D5000080000000061
:100020000000000000000000000000007D500008FB
:100030007D500008000000007D500008A913000852
:100040007D5000087D5000087D5000087D5000085C
:100050007D5000087D5000087D5000087D5000084C
:100060007D5000087D5000087D500008B10C00084C
:100070007D5000087D5000087D5000087D5000082C
:100080007D5000087D5000087D5000087D5000081C
:100090007D5000087D5000087D5000087D5000080C
:1000A0007D5000087D5000087D5000087D500008FC
:1000B000A50C00087D5000087D5000087D50000808
:1000C0007D5000087D5000087D5000087D500008DC
:1000D0007D5000087D5000087D5000087D500008CC
:1000E0007D5000087D500008000000007D50000891
:1000F0007D5000087D5000087D5000087D500008AC
:100100007D5000087D5000087D5000087D5000089B
:100110007D5000087D500008E90C00087D50000863
:100120007D5000087D5000087D5000087D5000087B
:100130007D5000087D5000087D5000087D5000086B
:1001400000000000000000000000000000000000AF
:100150007D5000087D5000087D5000087D5000084B
:100160007D5000087D5000087D5000087D5000083B
:100170007D5000087D5000087D5000080000000000
:100180007D5000087D5000087D5000087D5000081B
:100190007D5000087D5000087D5000087D5000080B
:1001A0007D5000087D5000087D5000087D500008FB
:1001B0007D5000087D5000087D5000087D500008EB
:1001C0007D5000087D5000087D5000087D500008DB
:1001D0007D500008B51300087D5000087D500008D0
:1001E0007D5000087D5000087D5000087D500008BB
:1001F0007D5000087D5000087D5000087D500008AB
:100200007D5000087D5000087D5000087D5000089A
:100210007D5000087D5000087D5000087D5000088A
:100220007D5000087D5000087D500008000000004F
:100230007D5000087D500008000000007D5000083F
:100240007D5000087D5000087D5000087D5000085A
:100250007D5000087D5000087D5000087D5000084A
:100260007D5000087D5000087D5000087D5000083A
:100270007D5000087D5000087D50000800000000FF
:100280007D500008000000007D50000800000000C4
:08029000000000007D50000891
:1002A00010B5054C237833B9044B13B10448AFF3B0
:1002B00000800123237010BDA00200200000000078
:1002C0002060000808B5034B1BB103490348AFF396
:1002D000008008BD00000000A4020020206000088B
:1002E00010F8012B11F8013B012A28BF9A42F7D0E0
:1002F000D01A70470000000000000000000000005D
:1003000001F0FF01102A2BDB10F0070F08D010F8C6
:10031000013B013A8B422DD010F0070F42B3F6D1CA
:10032000F0B441EA012141EA014122F007047FF0E3
:1003300000070023F0E80256083C85EA010586EA3A
:10034000010685FA47F5A3FA87F586FA47F6A5FA76
:1003500087F68EB9EED1F0BC01F0FF0102F0070282
:1003600032B110F8013B013A83EA010313B1F8D12D
:100370000020704701387047002D06BF354603380E
:10038000073815F0010F07D1013015F4807F02BF47
:10039000013015F4C03F0130F0BC0138704700BF98
:1003A00053B94AB9002908BF00281CBF4FF0FF31DC
:1003B0004FF0FF3000F072B9ADF1080C6DE904CEDA
:1003C00000F006F8DDF804E0DDE9022304B0704730
:1003D0002DE9F047089E04468846002B4BD18A42FF
:1003E000154667D9B2FA82F24AB1C2F1200701FA82
:1003F00002F320FA07F7954047EA030894404FEAD2
:10040000154E230CB8FBFEF71FFA85FC0EFB178870
:1004100043EA084307FB0CF1994209D9EB1807F1AD
:10042000FF3080F01B81994240F21881023F2B443B
:100430005B1AA4B2B3FBFEF00EFB103344EA034494
:1004400000FB0CFCA44509D92C1900F1FF3380F006
:100450000781A44540F2048102382C4440EA074059
:10046000A4EB0C0400271EB1D4400023C6E90043CE
:100470003946BDE8F0878B4209D9002E00F0EB80A9
:100480000027C6E9000138463946BDE8F087B3FACF
:1004900083F7002F47D18B4202D3824200F2FA80C9
:1004A000841A61EB030301209846002EE0D0C6E9D0
:1004B0000048DDE702B9FFDEB2FA82F2002A40F01E
:1004C0008F80491B4FEA154E1FFA85F80127B1FBB3
:1004D000FEFC230C0EFB1C1143EA014308FB0CF14C
:1004E000994207D9EB180CF1FF3002D2994200F281
:1004F000CD808446591AA3B2B1FBFEF00EFB101456
:1005000043EA044408FB00F8A04507D92C1900F180
:10051000FF3302D2A04500F2B6801846A4EB0804CF
:1005200040EA0C409FE7C7F1200CBB4022FA0CFECA
:100530004EEA030E01FA07F420FA0CF521FA0CF347
:100540004FEA1E482543B3FBF8F92C0C08FB19337E
:100550001FFA8EFA44EA034309FB0AF49C4202FAAA
:1005600007F200FA07F10BD91EEB030309F1FF3084
:1005700080F087809C4240F28480A9F10209734494
:100580001B1BADB2B3FBF8F008FB103345EA034484
:1005900000FB0AFAA24508D91EEB040400F1FF3360
:1005A0006BD2A24569D90238744440EA0940A0FBE5
:1005B0000289A4EB0A044C45C2464B4654D351D0A1
:1005C000002E69D0B1EB0A0564EB030404FA0CFCBD
:1005D000FD40FC404CEA0505C6E90054002747E70A
:1005E000C2F1200320FA03F7954001FA02F021FA44
:1005F00003F34FEA154E3843010CB3FBFEF71FFA25
:1006000085F80EFB173341EA034107FB08F38B42E1
:1006100004FA02F407D9691807F1FF3C2FD28B4284
:100620002DD9023F2944CB1A81B2B3FBFEF00EFB59
:10063000103341EA034100FB08F38B4207D96918E4
:1006400000F1FF3C17D28B4215D902382944C91A50
:1006500040EA07473BE73746304609E70746E7E603
:100660001846FBE64145ABD2B8EB020A69EB0E0235
:1006700001381346A4E76046E9E7184695E7674660
:10068000D1E781467CE702382C4447E7ACF1020C05
:100690002B442FE7384608E73746E9E6704700BFA6
:1006A0004C4BD3F8E02042F00102C3F8E020D3F82D
:1006B000E02042F00202C3F8E020D3F8E02042F04C
:1006C0000402C3F8E020D3F8E02042F00802C3F8A7
:1006D000E020D3F8E02042F01002C3F8E020D3F885
:1006E000E02042F04002C3F8E020D3F8E02042F0DE
:1006F0008002C3F8E020384A116821F400411160FB
:10070000116821F00051116002F5A052116821F02A
:10071000020111603149086820F002000860506948
:1007200020F040005061106820F400501060D06844
:1007300020F44050D060906820F4405090601068E1
:1007400020F440401060D06820F44040D0605069F0
:1007500020F0010050614A6922F001024A61204AFA
:10076000116821F440611160116841F40061116069
:10077000116A41F480111162D16821F44061D160A5
:10078000916841F440619160D3F8F42042F0020294
:10079000C3F8F420A3F570531A6822F040621A607F
:1007A00010494A6942F020024A61A1F560710A6865
:1007B00042F400520A604FF0B042516821F40051F7
:1007C0005160116841F400511160DA6822F0406212
:1007D000DA607047004402580004025800100258C2
:1007E0000000025800040058164AD2F8E83043F0DE
:1007F0000103C2F8E8304FF0804300221A859A6E58
:100800009A669A6942F001029A619A699A611A6A33
:1008100042F002021A621A6A42F008021A629A69E7
:100820009A61DA6842F40072DA601A6A42F00102F0
:100830001A625A6942F001025A611A8842F00102B2
:100840001A807047004402580E4AD2F8E83043F04C
:100850001003C2F8E8300C4B0922DA6218221A851C
:10086000D96840F201120A43DA60084A4FF4800165
:100870005160002182F836131A8842F001021A8072
:10088000704700BF004402580010004000E100E043
:10089000002303E0034A42F823300133B3F5704FDD
:1008A000F8DB704700000024484BDA6822F00402AD
:1008B000DA609A6942F440429A61444B9B6913F4AE
:1008C000005FFAD0424B1A6842F480521A601A68EC
:1008D00042F480221A601A6842F480321A603C4B5B
:1008E0001B6813F4003FFAD0394B1A6822F080726B
:1008F0001A609A6A42F002029A629A6A42F0100200
:100900009A621A6B42F064021A631A6B42F4007224
:100910001A631A6B42F440321A631A6B42F0807207
:100920001A63DA6A22F00102DA6200225A63DA6A92
:1009300042F00C02DA62DA6A42F00202DA62DA6A41
:1009400042F4E022DA62DA6A42F00102DA621A68FC
:1009500042F080721A601E4B1B6813F0007FFAD0C1
:100960001C4A136843F002031360194B9A6942F062
:1009700008029A619A699A61154B1B6813F0007F0F
:10098000FAD0134B9A6942F040029A61DA6942F058
:100990004002DA61DA6942F48062DA611A6A42F08E
:1009A00040021A621A6942F003021A615A6D22F07B
:1009B00007025A655A6D5A655A6D22F440125A65FB
:1009C0005A6D42F440125A65704700BF0048025801
:1009D000004402580020005210B5324AD2F8D830F4
:1009E00043F00103C2F8D8302F4A136823F0010303
:1009F00013602D4B1B6813F0010FFAD12B4B5B6872
:100A00001BB92A4B1B68002B47D0294804F090FCE7
:100A1000254C284BA360284BE3604FF47043636080
:100A2000264A136843F012031360236843F44033EB
:100A30002360236843F480432360236843F4805396
:100A40002360236843F48063236023682360236862
:100A500043F48073236023682360236843F010030A
:100A60002360236843F004032360236843F00103F9
:100A70002360134B4FF400621A60002283F80B23AB
:100A8000216801F001010F4804F0DEFB2168C1F389
:100A900000210D4804F0D8FB10BD0C4804F048FCC0
:100AA000B6E700BF004402581000024000000240B8
:100AB0007460000834000040000000240008024078
:100AC00000E100E0A4600008B86000085860000879
:100AD00070B503F0EDFCBFF34F8FBFF36F8F664B24
:100AE0000022C3F85022BFF34F8FBFF36F8FC3F8BC
:100AF0008420BFF34F8FD3F88000C0F34E32C0F391
:100B0000C90102E01A46FAE7194643F6E07303EA20
:100B1000421343EA8173584CC4F860324B1E0029DB
:100B2000F2D1531E002AEDD1BFF34F8FBFF36F8F69
:100B3000BFF34F8FBFF36F8FC4F85012BFF34F8FC7
:100B4000BFF36F8F626942F400326261BFF34F8F6F
:100B5000BFF36F8FC4F88410BFF34F8FD4F88000B9
:100B6000C0F34E32C0F3C90102E01A46FAE7194653
:100B700043F6E07303EA421343EA81733E4CC4F840
:100B800060324B1E0029F2D1531E002AEDD1BFF373
:100B90004F8F636943F480336361BFF34F8FBFF3BB
:100BA0006F8FFFF781FEFFF77BFD00F0CDF800F0BF
:100BB00075F900F0C3F9314B1860FFF769FE4FF487
:100BC000FA6003F097FC2E4804F0B2FB2D492E4842
:100BD000FFF786FB05460028F8D12C4804F0A8FB57
:100BE000FFF7FAFEFFF700FEFFF72EFE00242AE0D3
:100BF0004FF40061264800EBC62000F0BFFB254BF8
:100C0000D3F81832D3F81432002BF8D101363B2E2A
:100C1000EEDD214B1B68002BFBD03C260EE04FF491
:100C200000611B4800EBC62000F0A8FB194BD3F86D
:100C30001832D3F81432002BF8D10136772EEEDDBE
:100C40000134142C08D0132CFBD8144B5B68B3F57B
:100C5000F04FF6D22E46DAE70D48114B03604FF401
:100C6000006100F08BFB0B4BD3F81832D3F8143231
:100C7000002BF8D1E7E700BF00ED00E03C050020C5
:100C80003860000844600008000000205060000840
:100C90000000002418030020C002002010000240C1
:100CA000656E64004FF0804300221A6170470000B7
:100CB000094A936843F028039360084A536943F054
:100CC00080035361064A136801331360054A1368B1
:100CD00001331360704700BF000002400004025857
:100CE000BC020020C0020020054A136923F0010362
:100CF0001361044A536983F001035361704700BFD5
:100D0000001000400018025810B582B0044602A935
:100D100001F8040D0A230122024802F0A9FE204630
:100D200002B010BDDC05002070B51646002405E0B9
:100D30004D1C0878FFF7E8FF01342946B442F7DB81
:100D4000304670BDFEE7000010B582B019481A4B5E
:100D5000036000238DF8003080228DF80120E1220D
:100D60008DF802208DF803308DF804308DF80530B1
:100D7000C0F804D001230372104BC360104B036111
:100D800040F2F453436102F0A7F868B90D4C3022E9
:100D90000021204604F0A8F9212344F8043C4FF434
:100DA0004033236102B010BD6E210748FFF7CAFF30
:100DB000ECE700BF40050020008002404002002018
:100DC000E0010020AC050020D460000802682D4B33
:100DD0009A4200D0704770B588B02B4BD3F8D8201A
:100DE00042F40042C3F8D820D3F8D82002F40042DD
:100DF0000092009AD3F8D82042F48032C3F8D82069
:100E0000D3F8D82002F480320192019AD3F8D82086
:100E100042F40032C3F8D820D3F8D83003F40033BA
:100E20000293029B32230393022604960024059426
:100E300006940B25079503A9144803F015FA862399
:100E40000393049605940694079503A9104803F0AC
:100E50000BFA4FF4005303930496059406940795F8
:100E600003A90C4803F000FA4FF4205303930496AF
:100E700005940694079503A9074803F0F5F908B00F
:100E800070BD00BF008002400044025800080258B4
:100E900000000258000402580018025808B50E4815
:100EA0000E4B03604FF4E133436000238360C36063
:100EB00003610C2242618361C36103624362836206
:100EC000C3620363436302F074FE00B908BD52219C
:100ED0000348FFF737FFF9E7DC0500200048004032
:100EE000E06000080268124B9A4200D0704700B5DB
:100EF00087B0104BD3F8E82042F48022C3F8E820F2
:100F0000D3F8E83003F480230093009B4FF4407340
:100F10000193022302930023039304930723059371
:100F200001A9054803F0A0F907B05DF804FB00BF74
:100F30000048004000440258000C025810B50A4C0A
:100F400000220A49204603F027FB0949204603F006
:100F50003AFB0849204604F022F8204603F03AFB09
:100F600003F078FA204610BD180300201800002076
:100F70006C0000204C00002002681A4B9A4200D0FE
:100F8000704730B587B04FF4E853019302230293C2
:100F90000024039404940A230593134D01A92846C1
:100FA00003F062F94FF4007301930294039401A9D2
:100FB000284603F059F90D4BD3F8D82042F00062CF
:100FC000C3F8D820D3F8D83003F000630093009B17
:100FD00022462146652001F0E1FC652001F010FD6C
:100FE00007B030BD0000084000000258004402581D
:100FF00008B500F56F71D0F8FC0303F004FB08BDE1
:1010000008B5C1EBC10293000344D3F80422D0F821
:10101000FC0303F025FB08BD08B5C1EBC10293003A
:1010200003445A6CD0F8FC0303F04FFB08BD08B52D
:10103000D0F8FC0303F0D2FB08BD10B50446C3682A
:101040004BB10121D4F8FC0303F0B6FBD4F8FC0348
:1010500003F093FB10BD0021F4E7000010B5044637
:10106000D0F8FC0303F0ABFB2268D2F8003E43F05B
:101070000103C2F8003E236A23B1034A136943F017
:101080000603136110BD00BF00ED00E008B5D0F805
:10109000FC0303F09DFB08BD08B5D0F8FC0303F08A
:1010A000ADFB08BD08B5D0F8FC0303F0A5FB08BDF7
:1010B00008B5D0F8FC0303F0A3FB08BD08B5D0F8D1
:1010C000FC0303F09FFB08BD03780BB100207047C1
:1010D00010B503461748C0F8FC33C3F82002164B7E
:1010E0000360092343600222C2600023036143615D
:1010F00082610122C261036283624262C26203634F
:1011000000F002FA80B90B4C8021204600F002FF6B
:1011100040220021204600F0D9FE802201212046F5
:1011200000F0D4FE002010BD40F257110348FFF735
:1011300009FEE8E75C06002000000840EC600008BB
:1011400008B5D0F8200200F05DFA18B1022803D0EB
:10115000022008BD0020FCE70120FAE710B51C467C
:1011600013462246D0F8200200F094FD18B1022860
:1011700003D0022010BD0020FCE70120FAE708B5EB
:10118000D0F8200200F0BAFD18B1022803D00220E6
:1011900008BD0020FCE70120FAE708B5D0F82002DE
:1011A00000F036FE18B1022803D0022008BD00204E
:1011B000FCE70120FAE708B5D0F8200200F05BFE5A
:1011C00018B1022803D0022008BD0020FCE701204E
:1011D000FAE7D0F8203211F0800F08D101F07F013A
:1011E000C1EBC1018A00134493F8FA01704701F082
:1011F0007F01C1EBC1018A00134493F83A007047A4
:1012000008B5D0F8200200F033FD18B1022803D051
:10121000022008BD0020FCE70120FAE708B5D0F85D
:10122000200200F0CCFD18B1022803D0022008BD36
:101230000020FCE70120FAE708B5D0F8200200F012
:1012400088FD18B1022803D0022008BD0020FCE769
:101250000120FAE708B5D0F8200200F0A7FD08BD8C
:1012600012230B80004870473400002004230B80B9
:10127000004870474800002008B50A4628B10549D3
:10128000054803F03AFD034808BD0249024803F04F
:1012900034FDF8E75C0A00202C61000810B5044C0E
:1012A0000A462146034803F028FD204610BD00BF32
:1012B0005C0A00201861000808B50A4628B10549F3
:1012C000054803F01AFD034808BD0249024803F02F
:1012D00014FDF8E75C0A00204461000808B50A46DE
:1012E00028B10549054803F008FD034808BD024937
:1012F000024803F002FDF8E75C0A0020FC600008E9
:1013000008B50A4628B10549054803F0F6FC03482C
:1013100008BD0249024803F0F0FCF8E75C0A00202F
:1013200008610008002070470020704738B50C465F
:10133000064D0A680146284604F012F82368002486
:10134000EC54034803F057FE204638BD000000204F
:101350001803002010B5064C00220649204603F071
:1013600025FE0549204603F029FE002010BD00BFE0
:1013700018030020444C00205C0C0020094BD3F8DB
:101380001832D3F814320BB10120704710B50A4659
:101390000146044C204603F009FE204603F014FEEB
:1013A00010BD00BF1803002008B503F091F801F04C
:1013B0004CFB08BD08B5024800F02EF908BD00BF7F
:1013C0005C06002000B583B01E4BD3F8F42042F039
:1013D0000202C3F8F420D3F8F43003F002030193BF
:1013E000019B032001F0C8FA002211466FF00B00A8
:1013F00001F0D4FA002211466FF00A0001F0CEFA93
:10140000002211466FF0090001F0C8FA00221146CF
:101410006FF0040001F0C2FA002211466FF00300E1
:1014200001F0BCFA002211466FF0010001F0B6FA9B
:10143000002211464FF0FF3001F0B0FA03B05DF822
:1014400004FB00BF004402582DE9F04383B0074677
:101450000D46D0F80080CA00521A93000344DE6C97
:101460001A6DB61A1B6C9E4200D91E4616F103096E
:1014700002D44FEAA90919E009F10309F9E716F1C5
:1014800003092FD44FEAA909EB005B1B9C003C44E5
:10149000616C3B7C0093B3B2EAB2404601F024F9A0
:1014A000636C33446364236D33442365414608EB26
:1014B000451303F510639B699BB24B4515D9EA00B0
:1014C000521B93003B441A6DDB6C9A420DD263B100
:1014D0009E1AC5EBC50293003B441B6C9E42CED9BD
:1014E0001E46CCE709F10309CCE7002E03DD0020FE
:1014F00003B0BDE8F0830123AB40D1F8345825EAAE
:101500000305C1F83458F2E7002879D0F0B58BB064
:101510000446032380F8B933FFF72EFD206800F05E
:1015200065FD254655F8107B6E460FCD0FC60FCDD5
:101530000FC695E8030086E80300231D0ECB38464E
:1015400000F010FD0021206800F056FD002210E0A0
:10155000D100891A8B002344012183F8391083F8C4
:101560003820DA87002183F83B1019645964D96464
:1015700001320E2AECD9002218E0D100891A8B0022
:101580002344002183F8F91183F8F821DA8783F8DE
:10159000FB11C3F80012C3F80412C3F80C1223683D
:1015A00002F1400003EB8003596001320E2AE4D9B6
:1015B000254655F8107B6E460FCD0FC60FCD0FC6D2
:1015C00095E8030086E80300231D0ECB384600F0A3
:1015D00029FD012384F8B933A36A012B08D0636A7B
:1015E000012B09D0206801F02AF900200BB0F0BDD2
:1015F000204600F093FCF2E7204600F0A3FCF1E760
:101600000120704710B50446006801F00CF920680D
:1016100000F0E6FC002010BD2DE9F0470446056807
:10162000284601F047F908B1BDE8F0870646206872
:1016300001F011F90028F7D0206801F00CF910F042
:10164000020F02D0236802225A61206801F003F9D8
:1016500010F4002F40F090803746206801F0FBF82E
:1016600010F4802F40F01581206801F0F4F8002874
:10167000C0F28181206801F0EEF810F4006F09D00B
:10168000D5F8083813F0010F40F08E8123684FF42D
:1016900000625A61206801F0DEF810F0006F14D08B
:1016A00023684FF000625A6194F8EC33002B40F04D
:1016B0007F81012184F8EC1323685B6DC3F38303FE
:1016C000C4F8F033204600F04BFC206801F0C3F86A
:1016D00010F4805F40F07081206801F0BCF810F4D5
:1016E000005F40F0B881206801F0B5F810F0100FED
:1016F00014D02268936923F0100393612E6A06F0D8
:101700000F08C6F34343022B00F05082062B00F073
:101710006E822268936943F010039361206801F0A0
:101720009AF810F0080F40F07682206801F093F8E4
:1017300010F4801F40F07682206801F08CF810F4DD
:10174000001F40F07882206801F085F810F0804F8B
:1017500040F07A82206801F07EF810F0040F3FF428
:1017600063AF23685D6815F0040F40F0758222684E
:1017700053682B43536057E7206801F070F88046A8
:10178000374648E0D5F8082B12F4004F61D04FF4EB
:1017900000429A605DE0F900C91B8A002244D2F839
:1017A00000121B69C3F31203C91AC2F81012D2F84F
:1017B0000012D2F804320B44C2F804324CE0002F7D
:1017C00051D1C7EBC70293002344D3F80C32002B4E
:1017D00049D104F56F720121206801F08BF842E0D5
:1017E0002046FFF705FC05EB47130822C3F8082B3A
:1017F00019F0100F04D005EB47131022C3F8082B83
:1018000019F0200F04D005EB47132022C3F8082B52
:1018100001374FEA5808B8F1000F3FF41EAF18F037
:10182000010FF5D05FFA87FA5146206801F027F8DA
:10183000814610F0010F16D005EB471303F5306316
:1018400001229A60296CBC4A914202D92269012A7C
:1018500098D02269012A9ED051462046FFF7D0FB3E
:101860002369012BABD019F0080FC1D02A6CB24B01
:101870009A42B5D92369012BB2D1D5F8083B13F4AC
:10188000004FADD005EB47134FF40042C3F8082BCF
:10189000A6E7206800F0EBFF804637462EE0FA000E
:1018A000D21B93002344196C5A6C0A445A6446E0D4
:1018B00019F0080F04D005EB47130822C3F80829D4
:1018C00019F0100F04D005EB47131022C3F80829B4
:1018D00019F0400F04D005EB47134022C3F8082944
:1018E00019F0020F04D005EB47130222C3F80829B0
:1018F00019F0800F3AD101374FEA5808B8F1000FBC
:101900003FF4B2AE18F0010FF5D05FFA87FA5146F6
:10191000206800F0BDFF814610F0010FC8D0012201
:1019200002FA07F0D5F8343823EA0003C5F8343852
:1019300005EB4713C3F8082923699342AFD05146FA
:101940002046FFF769FB2369012BB1D1002FAFD1EE
:10195000C7EBC70293002344DB6C002BA8D104F52E
:101960006F720121206800F0C5FFA1E739462046CB
:10197000FFF76AFDBFE7D5F8043823F00103C5F887
:10198000043894F8EC33012B07D02046FFF77EFB98
:1019900023684FF000425A616CE6002184F8EC1392
:1019A000204600F0DDFAF3E72046FFF757FB6DE62F
:1019B0002046FFF753FB88E6A94605F50068D8F8EE
:1019C000043023F00103C8F804301021206800F02F
:1019D000D7FB07E009EB4613FF22C3F80829C3F839
:1019E000082B01366368B342F4D84FF0FF33C8F8D0
:1019F0001830D8F81C3043F00113C8F81C30236BA2
:101A0000E3B1D8F8843043F00B03C8F88430D8F839
:101A1000443043F00B03C8F84430D5F8003823F4C1
:101A2000FE63C5F8003804F56F72217C206800F071
:101A300061FF23684FF480525A614DE6D8F81430A4
:101A400043F00B03C8F81430D8F8103043F00B0300
:101A5000C8F81030E1E7206800F030FF2268D36852
:101A600023F47053D360206800F0B7FB88B90023DB
:101A7000E3604FF4007363612268D36843F410534A
:101A8000D3602046FFF7D9FA23684FF400525A6119
:101A900029E60323E3604023636102F0A3F9274BA7
:101AA0000344274A934205D82268D36843F470530D
:101AB000D360E6E7234B0344234A934205D82268C8
:101AC000D36843F46053D360DBE7204B0344204AE0
:101AD000934205D82268D36843F45053D360D0E7CB
:101AE0001C4B03441C4A934205D82268D36843F434
:101AF0004053D360C5E7194B0344194A934205D8B4
:101B00002268D36843F43053D360BAE7154B0344DB
:101B1000154A934205D82268D36843F42053D36012
:101B2000AFE7124B0344124A934223D82268D3688A
:101B300043F41053D360A4E70931544F405327FFB7
:101B4000FF340C00401E1BFF3F420F0000DC0BFF68
:101B50007F4F1200808CF9FE1FD6130060B6E5FEA1
:101B60005FE3160000D3CEFE3F771B00C05BB3FEE1
:101B7000BF9121003A4B03443A4A934205D8226868
:101B8000D36843F40053D3607BE7374B0344374AB1
:101B9000934205D82268D36843F4E053D36070E7DA
:101BA0002268D36843F4C053D3606AE747F6F07302
:101BB0001E423FF4AEAD36094FEAC80AAAEB08034D
:101BC0004FEA8309A144C6F30A02D9F80412284651
:101BD00000F09EFDC6F30A06D9F804323344C9F872
:101BE0000432D9F810321E44C9F8106291E5082277
:101BF00004F56F71284600F08BFDC6F30A164FEA14
:101C0000C803A3EB08018A002244D2F810321E4414
:101C1000C2F810627DE52046FFF709FA2368082222
:101C20005A6182E5F9B22046FFF73CFA23684FF487
:101C300080125A6180E5F9B22046FFF72DFA236839
:101C40004FF400125A617EE52046FFF731FA23680F
:101C50004FF080425A617DE52046FFF72FFA86E576
:101C600000CA91FE1F753800E05459FEDF9C410008
:101C700090F8B833012B0BD010B50446012380F83F
:101C8000B833006800F0BFFD002084F8B80310BD31
:101C90000220704770B54DB2002D22DB01F07F06A7
:101CA000C6EBC606B40004F5FC74044401F07F01E1
:101CB0002170ED0F6570A260E37005B1E180022B29
:101CC00017D090F8B833012B16D00546012380F8C1
:101CD000B8332146006800F0A1FA002085F8B80367
:101CE00070BD01F07F06C6EBC606B400383404446C
:101CF000DCE700232371E4E70220F1E710B54AB2E4
:101D0000002A1CDB01F07F04C4EBC404A30003F52C
:101D1000FC73034401F07F011970D20F5A7090F8E0
:101D2000B823012A13D00446012280F8B8231946AB
:101D3000006800F0BBFA002084F8B80310BD01F081
:101D40007F04C4EBC404A30038330344E2E7022059
:101D5000F4E770B501F07F06F500A91B8C0004F5CF
:101D6000FC740119AD1BAC000444C4F80422C4F88F
:101D70000C320023C4F8103284F8F93184F8F86189
:101D80000369012B06D066B1DAB2006800F0CEFA22
:101D9000002070BDC6EBC605AC000444C4F80822A0
:101DA000F1E7DAB2006800F0F1FBF1E701F00F01B2
:101DB000C1EBC1018B001844B0F81002704770B538
:101DC00001F07F06F500A91B8C0038340119AD1B0A
:101DD000AC0004446264E36400232365012384F8B7
:101DE000393084F838600369012B06D05EB1DAB26D
:101DF000006800F09BFA002070BDC6EBC605AC0081
:101E00000444A264F2E7DAB2006800F0BFFBF2E734
:101E100038B54AB2002A1DDBC1EBC104A30003F5AB
:101E2000FC73034401249C7001F07F041C70D20FEA
:101E30005A7090F8B823012A1BD00546012280F879
:101E4000B8231946006800F077FC5CB1002085F8E3
:101E5000B80338BD01F07F04C4EBC404A3003833D9
:101E60000344DFE705F56F72297C286800F042FD26
:101E7000ECE70220EDE710B54AB2002A1CDBC1EB0B
:101E8000C104A30003F5FC73034400249C7001F01B
:101E90007F011970D20F5A7090F8B823012A13D01D
:101EA0000446012280F8B8231946006800F076FC49
:101EB000002084F8B80310BD01F07F04C4EBC40413
:101EC000A30038330344E0E70220F4E730B40468A9
:101ED000606A29B10D46A36A00EB134000230CE0B1
:101EE00040EA0240A06212E003F1400104EB8101EC
:101EF000496800EB11400133DBB2691E8B42F3DB12
:101F000040EA024005F13F0104EB810148600020F6
:101F100030BC70470368596200207047024603686E
:101F20000121C0F8F413002082F8EC039A6942F012
:101F300000629A61596D024A0A435A65704700BFB0
:101F40000300001003680122C0F8F8239A6B42F4E2
:101F500000329A639A6B42F480229A6300207047A1
:101F60007047000084B010B5044603A880E80E0056
:101F7000089B012B1ED1A36B23F48033A363E2687B
:101F8000164B1340E360E36823F44013E3600F9BB8
:101F9000012B0AD0204600F0D1FC069B012B14D067
:101FA0000020BDE8104004B07047E36843F480139C
:101FB000E360EFE7E36843F04003E360204600F0AE
:101FC000BDFC4FF48033A363E7E7A36843F00C0341
:101FD000A360A36843F02003A360E1E7BFFFBDFF58
:101FE000836843F00103836000207047836823F017
:101FF000010383600020704708B5C36823F0C04325
:10200000C360012909D019B9C36843F08043C36094
:10201000322002F06FFA002008BDC36843F000537D
:10202000C360F5E784B0F8B5044607A880E80E0061
:10203000A36B43F40013A363119F5FB9A36B23F455
:102040000013A363236843F040032360236843F035
:102050008003236025460023C4F8003E04F5006693
:10206000D4F80038C4F800380C9B012B0BD1099B25
:1020700023B90021204600F0A9F808E001212046FC
:1020800000F0A4F803E00321204600F09FF810219F
:10209000204600F075F8204600F086F800233361F2
:1020A00073614FF0FF32B261F36108E04FF090408E
:1020B000C2F8000900220A61FF228A6001330799F1
:1020C00099420BD905EB431202F51061D2F80009D1
:1020D0000028EBDB0020C2F80009EBE7002308E052
:1020E0004FF0904CC2F800CB00220261FF228260C8
:1020F000013399420DD905EB431202F53060D2F855
:1021000000CBBCF1000FEBDB4FF0000CC2F800CBB2
:10211000EAE7336923F4807333610A9B012B1AD0F9
:102120000022A2616FF0804262611BB9A36943F093
:102130001003A361A2690E4B1343A3610D9B1BB156
:10214000A36943F00803A361012F0CD00020BDE870
:10215000F84004B07047074A3263316B064A0A43BD
:102160003263326BDCE7A269044B1343A361EDE7F2
:1021700000383C8000040002030001080400004015
:10218000890141F02001016100230133054A934296
:1021900005D8026912F0200FF7D100207047032004
:1021A000704700BF400D030010230361002301337B
:1021B000054A934205D8026912F0100FF7D10020AA
:1021C00070470320704700BF400D0300D0F800386F
:1021D0001943C0F8001800207047D0F8083800F5FF
:1021E000006013F0060F10D0836803F00603022B83
:1021F0000DD0836803F00603062B0AD0836803F032
:102200000603042B07D000207047002070470320EE
:1022100070470320704702207047000030B44B78AD
:10222000012B20D0D0F81C380D780122AA4043EAB7
:102230000243C0F81C380B7800EB4310D0F8003B89
:1022400013F4004F0CD1D0F8002B8B68C3F30A03B2
:10225000C97843EA81431343134A1A43C0F8002B59
:10226000002030BC7047D0F81C280D78AB409BB2E2
:102270001343C0F81C380A7800EB4210D0F800393C
:1022800013F4004FECD1D0F800498B68C3F30A0374
:10229000C97843EA814343EA82532343024A1A43FB
:1022A000C0F80029DCE700BF0080001030B44B7894
:1022B000012B1DD0D0F83C480D78012202FA05F51B
:1022C00024EA0544C0F83C48D0F81C480D78AA40E0
:1022D00024EA0242C0F81C280B7800EB4310D0F827
:1022E000003B23F40043C0F8003B002030BC7047A3
:1022F000D0F83C580A7803FA02F292B225EA0202B8
:10230000C0F83C28D0F81C280D78AB409BB222EADC
:102310000303C0F81C380B7800EB4310D0F80039E9
:1023200023F40043C0F80039DFE7000070B582B045
:102330004B78012B3CD00B7800EB4313D3F8105BA8
:102340008F4C2C40C3F8104B0B7800EB4313D3F8A1
:10235000105B8C4C2C40C3F8104B4B69002B40F0A9
:10236000D0800B7800EB4313D3F8104B8D68C5F386
:1023700012052C43C3F8104B0B7800EB4313D3F832
:10238000104B44F40024C3F8104B012A00F0D8800D
:10239000CB78012B00F0DB800B7800EB4310D0F8FA
:1023A000003B43F00443C0F8003B002002B070BD86
:1023B0004B695BBB0B7800EB4313D3F81059714C9E
:1023C0002C40C3F810490B7800EB4313D3F81049A5
:1023D00044F40024C3F810490B7800EB4313D3F8FE
:1023E0001059674C2C40C3F81049012A52D0CB78C1
:1023F000012B55D04B69002B52D0D0F834380E78D1
:102400000124B4402343C0F8343849E00B7800EB92
:102410004313D3F810595A4C2C40C3F810490B7889
:1024200000EB4313D3F81059564C2C40C3F8104915
:102430000C7800EB4414D4F810594B698E6833447F
:10244000013BB3FBF6F3504E06EAC3432B43C4F8FB
:1024500010390B7800EB4313D3F810494D69C5F3DD
:1024600012052C43C3F81049CB78012BBDD10B7852
:1024700000EB4313D3F8104924F0C044C3F81049CB
:102480000B7800EB4313D3F8104944F00054C3F821
:102490001049AAE70B7800EB43130C69C3F8144901
:1024A000CB78012B14D00B7800EB4313D3F8004901
:1024B00044F00444C3F80049CB78012B7FF475AF96
:1024C00014468B8A0A78C968009400F00DF96CE70D
:1024D000D0F8083813F4807F09D10B7800EB431350
:1024E000D3F8004944F00054C3F80049DBE70B7807
:1024F00000EB4313D3F8004944F08054C3F800497B
:10250000D1E78C682344013BB3FBF4F30C7800EB78
:102510004414D4F8105B1C4E06EAC3463543C4F895
:10252000105B0C7800EB4414D4F8106B8D689BB2F0
:1025300005FB03F5C5F312053543C4F8105B24E72A
:10254000CA680B7800EB4313C3F8142B20E7D0F8CC
:10255000083813F4807F09D10B7800EB4313D3F8CC
:10256000002B42F00052C3F8002B15E70B7800EB6C
:102570004313D3F8002B42F08052C3F8002B0BE733
:102580000000F8FFFFFF07E00000F81F30B44B78B1
:10259000012B37D00B7800EB4313D3F8105B504C72
:1025A0002C40C3F8104B0B7800EB4313D3F8105BAF
:1025B0004C4C2C40C3F8104B4B690BB18B684B61F2
:1025C0000B7800EB4313D3F8104B44F40024C3F80A
:1025D000104B0B7800EB4313D3F8104B8D68C5F309
:1025E00012052C43C3F8104B012A71D00B7800EB75
:1025F0004310D0F8003B43F00443C0F8003B0020F8
:1026000030BC70474B6983BB0B7800EB4313D3F8A6
:102610001059344C2C40C3F810490B7800EB43138D
:10262000D3F8104944F40024C3F810490B7800EBA8
:102630004313D3F810592A4C2C40C3F81049012AEF
:102640003FD04B693BB1D0F834380D780122AA4015
:102650001343C0F834380B7800EB4310D0F800393E
:1026600043F00443C0F80039C9E70B7800EB43138B
:10267000D3F810591A4C2C40C3F810490B7800EBD2
:102680004313D3F81059174C2C40C3F810494C6928
:102690008B689C4200D94B610B7800EB4313D3F855
:1026A000104944F40024C3F810490B7800EB43139D
:1026B000D3F810494D69C5F312052C43C3F81049EE
:1026C000BDE70B7800EB43130A69C3F81429C2E78E
:1026D000CA680B7800EB4313C3F8142B86E700BFDE
:1026E0000000F8FFFFFF07E070B49DF80C4064B9EC
:1026F00003339D1007E000EB023303F5805351F8DC
:10270000046B1E600134AC42F5D3002070BC7047EE
:1027100003329210002393420CD210B400F580547F
:10272000246841F8044B01339342F7D308465DF81F
:10273000044B7047084670474B78012B17D00B7835
:1027400000EB4313D3F8002B002A05DBD3F8002B52
:1027500022F08042C3F8002B0B7800EB4310D0F836
:10276000003B43F40013C0F8003B002070470B7897
:1027700000EB4313D3F80029002A05DBD3F8002926
:1027800022F08042C3F800290B7800EB4310D0F808
:10279000003943F40013C0F80039E6E74B78012B09
:1027A0000FD00B7800EB4313D3F8002B22F4001268
:1027B000C3F8002BCB78023BDBB2012B19D90020E8
:1027C00070470B7800EB4313D3F8002922F4001272
:1027D000C3F80029CB78023BDBB2012BEFD80B7892
:1027E00000EB4310D0F8003943F08053C0F80039B3
:1027F000E5E70B7800EB4310D0F8003B43F0805343
:10280000C0F8003BDBE7D0F8003823F4FE63C0F8E3
:102810000038D0F80038090101F4FE610B43C0F81C
:1028200000380020704708B5D0F8043823F00203C0
:10283000C0F80438032001F05DFE002008BD08B593
:10284000D0F8043843F00203C0F80438032001F044
:1028500051FE002008BD4269806910407047D0F8E1
:10286000183800F50060C0691840000C7047D0F8B7
:10287000183800F50060C069184080B2704700EB5E
:102880004111D1F8082B00F50060406910407047F5
:1028900010B4D0F81048D0F83438CB40DB01DBB2AC
:1028A000234300EB411000F51060806818405DF88C
:1028B000044B7047406900F001007047D0F80029D0
:1028C0000B4B1340C0F8003900F500639A6802F022
:1028D0000602042A05D05A6842F480725A60002029
:1028E0007047D0F8002942F00302C0F80029F2E74F
:1028F00000F8FFFF10B40024C0F8104BD0F8104BC4
:1029000044F40024C0F8104BD0F8104B44F01804E5
:10291000C0F8104BD0F8104B44F0C044C0F8104B36
:10292000012903D000205DF8044B7047C0F8142B38
:102930004FF08023C0F8003BF4E700000023013390
:102940000C4A934211D80269002AF8DA036943F06D
:102950000103036100230133064A934207D8026949
:1029600012F0010FF7D100207047032070470320B9
:10297000704700BF400D03000649CB6823F4E063B5
:102980001B041B0C000200F4E0600343024A1A43DC
:10299000CA60704700ED00E00000FA0530B4154B46
:1029A000DB68C3F30223C3F10704042C28BF04240B
:1029B0001D1D062D14D9033B4FF0FF3505FA04F415
:1029C00021EA0401994005FA03F322EA03031943BB
:1029D000002807DB0901C9B2074B195430BC704706
:1029E0000023E9E700F00F000901C9B2034B1954B5
:1029F000F4E700BF00ED00E000E400E014ED00E0CB
:102A0000002807DB00F01F02400901239340024A1F
:102A100042F82030704700BF00E100E00138B0F11B
:102A2000807F0AD2064B5860064AF02182F82310B4
:102A30000020986007221A6070470120704700BF8D
:102A400010E000E000ED00E0704708B5FFF7FCFF84
:102A500008BD000030B48B680A6813430A7943EA62
:102A6000C2630A7B43EAC2534A7B43EA82538A7BAE
:102A700043EA4253CA7B43EA02530A7C002A40F0ED
:102A8000B0804FF4002213434A7C002A40F0AB8010
:102A90004FF4003213438A7C43EA02434A691343EA
:102AA0008A6913430A7F43EA02334A7F43EAC22317
:102AB0008A7F002A40F099804FF480621343CA7FD6
:102AC00043EA422391F82020002A40F090804FF4FE
:102AD000807213434A6A134391F8282043EA021391
:102AE000CA6A13430468226822F07F4222F47B0200
:102AF00022F4FE4222F07C0213432360CA6B91F859
:102B000038301B0643EA426391F8302043EA82439F
:102B100091F8312043EA424391F83220002A68D1EB
:102B20004FF4803213434A6B13430468626822F007
:102B30007C5222F4EF2222F4FF6222F007021343B8
:102B4000636091F840204B6C43EA02220468E56818
:102B50002B4B2B401343E36091F854200B6D43EA59
:102B6000420391F84C20002A45D1802213438A6CFD
:102B700043EA02430468226F22F0F2021204120CAC
:102B80001343236791F8563091F8552043EA4202E7
:102B90000468D4F8903023F003031343C4F8903052
:102BA0000268D2F8003D23F072038C6D2343C2F813
:102BB000003DCB6D91F86020FAB10022134391F8EB
:102BC000612043EA021391F8622043EAC2030168DC
:102BD000D1F8302D22F07B021343C1F8303D30BCD8
:102BE000704700224FE7002254E7002266E70022E8
:102BF0006FE7002296E70022B8E74022DEE700BF39
:102C0000F0FEFFFF70B4026802F5805214681E4B9C
:102C100023400C68234313600A798B6843EA02332C
:102C20000A7B43EAC232056841F204042E59174B6D
:102C3000334013432B514C7B0B6A43EA0444026834
:102C400002F588521568124B2B40234313600B6921
:102C50000A7D43EA02134A7F43EA0232056841F2E1
:102C600004142E590B4B334013432B510A7F8B69AD
:102C700043EAC272006841F208114458064B2340EF
:102C80001343435070BC7047FD87FFFFFE2FFFFFCB
:102C900000C0FEFFEFEFC0FFFFFFC07F70B5A2B026
:102CA000064601258DF83350002412948DF84140DA
:102CB0008DF843408DF828508DF856508DF83250DD
:102CC0008DF84C408DF884504FF400530F938DF8DD
:102CD0005C4018948DF885408DF886404FF4C363AE
:102CE00016938DF830400B948DF835508DF83640A2
:102CF0008DF840401D941B9414948DF864408DF819
:102D00007A408DF84250202320938DF844508DF85E
:102D100055404FF0405309934FF480430E938DF884
:102D2000314002231F938DF878408DF879408DF85B
:102D300054408DF834501A948DF8705009A9FFF75B
:102D400089FE8DF80450029500948DF81C408DF892
:102D50000D408DF80C404FF4001306938DF814408D
:102D600004938DF81D404FF406730893694630466E
:102D7000FFF748FF22B070BD30B4002119E0C568EC
:102D800001EB4103DC002B1900222A555A709A707E
:102D9000DA701A715A719A71DA711A725A729A72D9
:102DA000DA721A735A739A73DA738A1D40F82230F2
:102DB00001310329E3D900238362026841F22C1315
:102DC0000321D150C168026841F21413D150C26886
:102DD000036803F589531A6030BC704730B4002192
:102DE00023E0056901EB4103DC002B1900222A5581
:102DF0005A709A70DA701A715A719A71DA711A727D
:102E00005A729A72DA721A735A739A73DA731A745C
:102E10005A749A74DA741A755A759A75DA7501F1DA
:102E20000A0200EB8202536001310329D9D9002341
:102E3000C36303644364C3648364026841F2301370
:102E40000321D1500169026841F21C13D15003697A
:102E50000168483341F228128B5030BC70470000A3
:102E600038B505460368D3F8004224F4706400F0D6
:102E7000B9FF114B0344114A934211D9104B03443B
:102E8000104A934212D9104B0344104A934209D975
:102E90000F4B03440F4A93420BD944F4806401E082
:102EA00044F400742B68C3F8004238BD44F4407405
:102EB000F8E744F48074F5E700D3CEFEBFE1E40008
:102EC00040F1E9FD3F787D0100796CFCFF59620219
:102ED000001F0AFA7FF0FA02002800F0928030B555
:102EE00083B0044690F851309BB3232384F85130CB
:102EF000454BD3F8F42042F00202C3F8F420D3F893
:102F0000F43003F002030193019B237A23BB0020DA
:102F100001F004FB236803F580531A6842F00102B4
:102F20001A6001F0E1FA0546236803F580531B6837
:102F300013F0010F15D001F0D7FA401BB0F5FA7F5E
:102F4000F2D904236365E02384F85130012003B0F3
:102F500030BDFDF73BFFC8E74FF4000001F0DEFA9B
:102F6000D8E72046FFF77CFF00F03CFF274BA3FB90
:102F700000239B0C2268013BC2F8DC302046FFF79F
:102F80008DFE226802F58852136823F4E01343F49F
:102F900000231360636913F0030F05D001206065FF
:102FA000E02384F85130D2E7206841F208114558F7
:102FB000174A2A4042EA430343502046FFF7DCFE0B
:102FC0002046FFF70BFF626851791379226843EAC4
:102FD0000123C2F800336268D17893781B0443EA76
:102FE0000163517843EA0123117822680B43C2F848
:102FF000043300206065102384F8513084F8523087
:10300000A5E70120704700BF0044025883DE1B4340
:103010000180FFFF2DE9F04387B004460168826A12
:1030200083680069034360690343E0690343134312
:103030000868874A02401A430A602268536823F4EA
:103040004053E1680B435360A2692168814B994268
:1030500001D0236A1A43A36AB3F1005F2FD08868B6
:103060007D4B034013438B602268D36A23F00F0328
:10307000616A0B43D3622368784A934224D0784A2A
:1030800093425ED0774A934275D0774A934200F0DC
:103090008C80764A934200F0A280754A934200F0F9
:1030A000B880744A934200F0F580734A934200F06E
:1030B0000881684A934200F01B81802531E1E36A70
:1030C000206B03431A43CAE76C4A526D02F0380280
:1030D000282A2AD8DFE812F0240129002900290033
:1030E00029002900290029002B0029002900290096
:1030F00029002900290029002D0029002900290084
:1031000029002900290029002F0029002900290071
:10311000290029002900290031002900290029005F
:10312000290029002900290033008025F9E0042521
:10313000F7E04025F5E00825F3E01025F1E0202533
:10314000EFE04E4A526D02F00702052A07D8DFE889
:1031500012F0360108000A000C000E001000802555
:10316000DFE00425DDE04025DBE00825D9E010257F
:10317000D7E02025D5E0414A526D02F00702052A2A
:1031800007D8DFE812F01E0108000A000C000E004C
:1031900010008025C5E00425C3E04025C1E00825D6
:1031A000BFE01025BDE02025BBE0344A526D02F09F
:1031B0000702052A07D8DFE812F0060108000A0016
:1031C0000C000E0010008025ABE00425A9E040258E
:1031D000A7E00825A5E01025A3E02025A1E0274AC7
:1031E000526D02F00702052A07D8DFE812F0EE0060
:1031F00008000A000C000E001000802591E0042554
:103200008FE040258DE008258BE0102589E0202502
:1032100087E01A4A526D02F03802282A16D8DFE8F1
:1032200002F0D6151515151515152F1515151515AB
:103230001515311515151515151533151515151504
:10324000151535151515151515153700802568E068
:10325000F369FFCF000C0058FFF4FF11001001408C
:103260000044004000480040004C00400050004036
:103270000014014000780040007C004000440258E7
:1032800004254EE040254CE008254AE0102548E0A2
:10329000202546E09B4A526D02F00702052A04D819
:1032A000DFE802F0970507090B0D802539E00425BA
:1032B00037E0402535E0082533E0102531E02025B2
:1032C0002FE0904A526D02F00702052A04D8DFE889
:1032D00002F0820507090B0D802522E0042520E07D
:1032E00040251EE008251CE010251AE0202518E0E6
:1032F00002F50E32926D02F00702052A04D8DFE8CB
:1033000002F06C0507090B0D80250AE0042508E092
:10331000402506E0082504E0102502E0202500E015
:103320000125794A93425AD0E269B2F5004F00F084
:103330009181402D00F2FB82DFE815F05A026C0209
:10334000F902F9027E02F902F902F902A602F90273
:10335000F902F902F902F902F902F902D002F902BE
:10336000F902F902F902F902F902F902F902F90285
:10337000F902F902F902F902F902F902E002F9028E
:10338000F902F902F902F902F902F902F902F90265
:10339000F902F902F902F902F902F902F902F90255
:1033A000F902F902F902F902F902F902F902F90245
:1033B000F902F902F902F902F902F9029202002572
:1033C000AFE70025ADE70025ABE70025A9E701251C
:1033D000A7E70025A5E70025A3E70225A1E7082D1B
:1033E00036D007D9202D3FD0402D2CD0102D0AD01B
:1033F00001206CE1022D08D0042DF9D103A800F0C2
:103400004DFD049B04E0414B05E000F031FD034617
:10341000002B00F08482666806EB46029A4200F2B6
:103420008082B3EB063F00F27E82082D00F095808B
:103430001FD9202D00F0F580402D6FD0102D00F009
:10344000D280012054E0684600F00EFE019BDFE7C9
:103450002C4B1B6813F0200F09D02A4B1868C0F3BF
:10346000C1002B4BC340D3E74FF40043D3E7284BB5
:10347000D1E7022D20D0042DE3D103A800F00EFDEA
:103480000025626A234B33F8122000230498294652
:10349000FCF786FF0F0247EA1067060262685008D1
:1034A0002B4616EB000847F1000940464946FCF759
:1034B00077FF034628461BE000F0DAFC0025626A2D
:1034C000144B33F8122000232946FCF769FF0F0242
:1034D00047EA10670602626850082B4616EB0008A0
:1034E00047F1000940464946FCF75AFF0346284683
:1034F000A3F54071084A914200F217822268D36016
:10350000E5E000BF00440258000C005800093D00EF
:103510000090D00354610008FFFC0F00684600F0E3
:10352000A3FD0025626AA44B33F812200023019802
:103530002946FCF735FF0F0247EA1067060262686A
:1035400050082B4616EB000847F100094046494653
:10355000FCF726FF03462846CAE7984B1B6813F082
:10356000200F22D0954B1968C1F3C1010025626A72
:10357000914B33F8122000239148C8402946FCF7AC
:103580000FFF4FEA012949EA10694FEA0028700845
:1035900032462B4618EB000649F100073046394603
:1035A000FCF7FEFE03462846A2E7626A824B33F828
:1035B0001220002382480021FCF7F2FE4FEA012985
:1035C00049EA10694FEA00287008002532462B4668
:1035D00018EB000649F1000730463946FCF7E0FEDB
:1035E0000346284684E7626A734B33F812200023AF
:1035F00074480021FCF7D4FE4FEA012949EA10691A
:103600004FEA00287008002532462B4618EB0006CA
:1036100049F1000730463946FCF7C2FE034628460A
:1036200066E7626A644B33F812204FF40043B3FB41
:10363000F2F34FF000094FEA0328770800253246DD
:103640002B4618EB070049F10001FCF7A9FE0346E1
:1036500028464DE7402D00F2C880DFE805F0213B09
:10366000C6C64CC6C6C672C6C6C6C6C6C6C69CC6F2
:10367000C6C6C6C6C6C6C6C6C6C6C6C6C6C6B5C6FB
:10368000C6C6C6C6C6C6C6C6C6C6C6C6C6C6C6C6DA
:10369000C6C6C6C6C6C6C6C6C6C6C6C6C6C65F00F7
:1036A00000F0BAFB626A444B33F81220B0FBF2F030
:1036B00063685A0802EB4002B2FBF3F292B20020B8
:1036C00022F00F03C2F342021A432368DA6007B004
:1036D000BDE8F08300F0B6FB626A374B33F8122086
:1036E000B0FBF2F063685A0802EB4002B2FBF3F25F
:1036F00092B20020E4E703A800F0D0FB626A2E4BF0
:1037000033F81230049AB2FBF3F361684A0802EB13
:103710004302B2FBF1F292B20020D1E7684600F01A
:10372000A3FC626A244B33F81230019AB2FBF3F324
:1037300061684A0802EB4302B2FBF1F292B2002048
:10374000BEE71E4B1B6813F0200F14D01B4B1A68EA
:10375000C2F3C1021A4BD340616A174A32F81120F2
:10376000B3FBF2F361684A0802EB4302B2FBF1F2E9
:1037700092B20020A4E7626A0F4B33F81220104B7C
:10378000B3FBF2F361684A0802EB4302B2FBF1F2C9
:1037900092B2002094E7626A074B33F81230094A6C
:1037A000B2FBF3F361684A0802EB4302B2FBF1F2A9
:1037B00092B2002084E700BF546100080044025820
:1037C0000090D00300093D00626A5A4B33F8123072
:1037D0004FF40042B2FBF3F361684A0802EB430284
:1037E000B2FBF1F292B200206AE70120002267E703
:1037F00000F012FB626A4F4B33F81230B0FBF3F368
:10380000626803EB5203B3FBF2F322689BB2D3600E
:1038100000205CE700F016FB626A464B33F812307A
:10382000B0FBF3F3626803EB5203B3FBF2F32268DD
:103830009BB2D36000204AE703A800F02FFB626A26
:103840003C4B33F81220049BB3FBF2F3626803EBAA
:103850005203B3FBF2F322689BB2D360002036E739
:10386000684600F001FC626A324B33F81220019B7B
:10387000B3FBF2F3626803EB5203B3FBF2F322688B
:103880009BB2D360002022E72B4A126812F0200F6F
:1038900014D0294A1168C1F3C101284ACA40606A9C
:1038A000244931F81010B2FBF1F2616802EB5102C9
:1038B000B2FBF1F292B2DA60002008E7616A1D4AB9
:1038C00032F811101D4AB2FBF1F2616802EB5102AD
:1038D000B2FBF1F292B2DA600020F8E6616A154AB2
:1038E00032F81110164AB2FBF1F2616802EB510294
:1038F000B2FBF1F292B2DA600020E8E6616A0D4AAA
:1039000032F811104FF40042B2FBF1F2616802EBA1
:103910005102B2FBF1F292B2DA600020D7E6002049
:10392000D5E60120D3E60120D1E60120CFE6012033
:10393000CDE600BF54610008004402580090D00357
:1039400000093D00436B13F0010F06D00268536875
:1039500023F40033816B0B435360436B13F0020F6E
:1039600006D00268536823F48033C16B0B43536065
:10397000436B13F0040F06D00268536823F48023CE
:10398000016C0B435360436B13F0080F06D00268C1
:10399000536823F40043416C0B435360436B13F0B3
:1039A000100F06D00268936823F48053816C0B4398
:1039B0009360436B13F0200F06D00268936823F4E2
:1039C0000053C16C0B439360436B13F0400F0AD05C
:1039D0000268536823F48013016D0B435360036D39
:1039E000B3F5801F0BD0436B13F0800F06D0026835
:1039F000536823F40023816D0B43536070470268C2
:103A0000536823F4C003416D0B435360EBE72DE98A
:103A1000F04105460F4616469846069C2B68DB6922
:103A200037EA03030CBF01230023B3421DD1B4F1D5
:103A3000FF3FF3D02CB100F057FDA0EB0800A042EF
:103A4000ECD92A68136823F4D07313602A6893684A
:103A500023F001039360202385F8793085F87A30CC
:103A6000002385F87830032000E00020BDE8F081D5
:103A70002DE9F04182B01E4690F87930DBB2202B60
:103A800052D104460D469046B2FA82F35B090029F2
:103A900008BF0123002B4CD190F87830012B4AD07D
:103AA000012380F878300023C367212380F8793020
:103AB00000F01AFD0746A4F86080A4F8628003E0D5
:103AC00023682A781A850135B4F862309BB2DBB1DD
:103AD000B4F86230013B9BB2A4F8623000963B46DA
:103AE000002280212046FFF792FF30BBA368B3F588
:103AF000805FE5D12369002BE2D1226835F8023BD3
:103B0000C3F308031385DFE700963B4600224021FC
:103B10002046FFF77CFF034688B9202284F87920ED
:103B2000002284F8782000E00223184602B0BDE8A5
:103B3000F0810123F9E70223F7E70323F5E70323E5
:103B4000F3E730B583B004460023C36700F0CCFC34
:103B5000054623681B6813F0080F0ED123681B6805
:103B600013F0040F17D1202384F8793084F87A30C9
:103B7000002084F8780003B030BD6FF07E430093DE
:103B8000034600224FF400112046FFF740FF0028B3
:103B9000E4D00320EFE76FF07E4300932B46002232
:103BA0004FF480012046FFF732FF0028DBD00320CE
:103BB000E1E778B310B5044690F879300BB32423CD
:103BC00084F879302268136823F0010313602046DB
:103BD000FFF720FA012813D0636BBBB92268536842
:103BE00023F4904353602268936823F02A03936080
:103BF0002268136843F0010313602046FFF7A1FF1A
:103C000010BD80F87830FDF76DF9D8E72046FFF752
:103C100099FEE3E7012070476D4B1B6903F0380301
:103C2000102B00F0D180182B0FD00BB169487047D2
:103C3000674B1B6813F0200F00F0C880644B1B68B3
:103C4000C3F3C1036448D840704770B4604DAC6A98
:103C500004F00304AE6AC6F30516EB6A03F0010331
:103C60006D6BC5F3CC0503FB05F307EE903AF8EE58
:103C7000677A012C60D0F4B1022C00F08980554B9A
:103C8000B3FBF6F307EE103AB8EE477A504B1B6BD6
:103C9000C3F30803DFED516A67EEA67A06EE903AA9
:103CA000F8EE666A76EEA77AF7EE006A77EEA67A05
:103CB00027EE277A5BE0464B1B6813F0200F1FD0DE
:103CC000434A1368C3F3C1034348D840B0FBF6F33B
:103CD00007EE103AB8EE477A136BC3F30803DFED33
:103CE0003F6A67EEA67A06EE903AF8EE666A76EEDE
:103CF000A77AF7EE006A77EEA67A27EE277A36E003
:103D00003548B0FBF6F307EE103AB8EE477A304B81
:103D10001B6BC3F30803DFED316A67EEA67A06EE8C
:103D2000903AF8EE666A76EEA77AF7EE006A77EEDA
:103D3000A67A27EE277A1AE02649B1FBF6F307EEBA
:103D4000103AB8EE477A224B1B6BC3F30803DFED42
:103D5000236A67EEA67A06EE903AF8EE666A76EE89
:103D6000A77AF7EE006A77EEA67A27EE277A184B45
:103D70001B6BC3F34623013307EE903AF8EE676AF4
:103D8000C7EE267AFCEEE77A17EE900A70BC704711
:103D9000134AB2FBF6F307EE103AB8EE477A0C4B33
:103DA0001B6BC3F30803DFED0D6A67EEA67A06EE20
:103DB000903AF8EE666A76EEA77AF7EE006A77EE4A
:103DC000A67A27EE277AD2E705487047024870475F
:103DD0000044025800093D000090D0030000003963
:103DE00000127A0008B500F025FA084B9B6903F031
:103DF0000F03012292FAA2F2B2FA82F2D340044AED
:103E0000D35CD840034B186008BD00BF0044025883
:103E10006C6100086800002008B5FFF7E3FF074B5E
:103E2000DB6903F07003102292FAA2F2B2FA82F276
:103E3000D340034AD35CD84008BD00BF00440258B9
:103E40006C61000808B5FFF7CDFF074BDB6903F491
:103E5000E0634FF4807292FAA2F2B2FA82F2D34097
:103E6000024AD35CD84008BD004402586C61000887
:103E700008B5FFF7B7FF074B1B6A03F0700310226A
:103E800092FAA2F2B2FA82F2D340034AD35CD8404B
:103E900008BD00BF004402586C610008F0B46D4CCE
:103EA000A76A07F00307A16AC1F3053CE66A06F0BA
:103EB0001006E36BC3F3CC0306FB03F607EE906A30
:103EC000B8EE677A012F60D0F7B1022F00F0A5801D
:103ED000614BB3FBFCF307EE903AF8EE677A5D4B6B
:103EE0009B6BC3F30803DFED5D6A27EE267A06EECF
:103EF000903AF8EE666A36EE877AF7EE006A37EEA9
:103F0000267A67EE877A5BE0524B1B6813F0200F2E
:103F10001FD0504A1368C3F3C103514DDD40B5FBB8
:103F2000FCF307EE903AF8EE677A936BC3F308035D
:103F3000DFED4A6A27EE267A06EE903AF8EE666AD8
:103F400036EE877AF7EE006A37EE267A67EE877AE2
:103F500036E0434CB4FBFCF307EE903AF8EE677A98
:103F60003C4B9B6BC3F30803DFED3C6A27EE267ADC
:103F700006EE903AF8EE666A36EE877AF7EE006A59
:103F800037EE267A67EE877A1AE03349B1FBFCF305
:103F900007EE903AF8EE677A2E4B9B6BC3F308035B
:103FA000DFED2E6A27EE267A06EE903AF8EE666A84
:103FB00036EE877AF7EE006A37EE267A67EE877A72
:103FC000244A936BC3F34623013307EE103AB8EE4D
:103FD000477AC7EE876AFCEEE66AC0ED006A936B2B
:103FE000C3F30643013307EE103AB8EE477AC7EE43
:103FF000876AFCEEE66AC0ED016A936BC3F3066361
:10400000013307EE103AB8EE477AC7EE876AFCEE46
:10401000E66AC0ED026AF0BC7047124AB2FBFCF3DC
:1040200007EE903AF8EE677A0A4B9B6BC3F30803EE
:10403000DFED0A6A27EE267A06EE903AF8EE666A17
:1040400036EE877AF7EE006A37EE267A67EE877AE1
:10405000B6E700BF0044025800093D0000000039E7
:104060000090D00300127A00F0B46D4CA76A07F0FC
:104070000307A16AC1F3055CE66A06F48076636C07
:10408000C3F3CC0306FB03F607EE906AB8EE677A3B
:10409000012F60D0F7B1022F00F0A580614BB3FB78
:1040A000FCF307EE903AF8EE677A5D4B1B6CC3F3B6
:1040B0000803DFED5D6A27EE267A06EE903AF8EE09
:1040C000666A36EE877AF7EE006A37EE267A67EE92
:1040D000877A5BE0524B1B6813F0200F1FD0504AC9
:1040E0001368C3F3C103514DDD40B5FBFCF307EE8C
:1040F000903AF8EE677A136CC3F30803DFED4A6A6F
:1041000027EE267A06EE903AF8EE666A36EE877A61
:10411000F7EE006A37EE267A67EE877A36E0434C90
:10412000B4FBFCF307EE903AF8EE677A3C4B1B6C5D
:10413000C3F30803DFED3C6A27EE267A06EE903AD9
:10414000F8EE666A36EE877AF7EE006A37EE267A80
:1041500067EE877A1AE03349B1FBFCF307EE903A39
:10416000F8EE677A2E4B1B6CC3F30803DFED2E6A63
:1041700027EE267A06EE903AF8EE666A36EE877AF1
:10418000F7EE006A37EE267A67EE877A244A136CD8
:10419000C3F34623013307EE103AB8EE477AC7EE71
:1041A000876AFCEEE66AC0ED006A136CC3F306434F
:1041B000013307EE103AB8EE477AC7EE876AFCEE95
:1041C000E66AC0ED016A136CC3F30663013307EEC0
:1041D000103AB8EE477AC7EE876AFCEEE66AC0EDA1
:1041E000026AF0BC7047124AB2FBFCF307EE903A49
:1041F000F8EE677A0A4B1B6CC3F30803DFED0A6A1B
:1042000027EE267A06EE903AF8EE666A36EE877A60
:10421000F7EE006A37EE267A67EE877AB6E700BFD8
:104220000044025800093D00000000390090D0030E
:1042300000127A0008B5FFF7EFFC084B9B6903F406
:1042400070634FF4807292FAA2F2B2FA82F2D34013
:10425000034AD35CD840034B186008BD00440258A1
:104260006C6100086400002000230F2B00F2E9803D
:10427000F0B482B03DE0092200E00022B2403A43AF
:104280000234704E46F824206F4A1468EA4302EA6A
:1042900004064F6817F4803F01D045EA04066A4CD3
:1042A0002660666802EA06044F6817F4003F01D0F2
:1042B00045EA0604644E74604FF0B044246802EA94
:1042C00004064F6817F4801F01D045EA04064FF03A
:1042D000B0442660646822404E6816F4001F01D086
:1042E00045EA04024FF0B044626001330F2B00F244
:1042F000A58001229A400C6804EA0205AA42F4D182
:104300004C68122C18BF022C10D1DE08083650F869
:1043100026C003F00704A7000F24BC402CEA040CBD
:104320000C69BC4044EA0C0440F8264004685F0075
:104330000326BE40F64306EA040C4C6804F003046E
:10434000BC4044EA0C0404604C6804F1FF3C112CAE
:1043500018BFBCF1010F01D9122C11D1846806EAF3
:10436000040CCC68BC4044EA0C048460446824EA31
:10437000020C4C68C4F300129A4042EA0C024260FC
:10438000C26816408A68BA403243C2604A6812F076
:10439000805FAAD02D4AD2F8F44044F00204C2F85B
:1043A000F440D2F8F42002F002020192019A9C0833
:1043B000A61C244A52F8267003F0030296000F222E
:1043C000B24027EA0207224A90423FF456AF02F574
:1043D0008062904222D002F58062904220D002F5A5
:1043E000806290421ED002F5806290421CD002F59D
:1043F000806290421AD002F58062904218D002F595
:104400008062904216D002F58062904214D002F58C
:10441000806290423FF42FAF0A222FE701222DE75E
:1044200002222BE7032229E7042227E7052225E7BA
:10443000062223E7072221E708221FE702B0F0BC8B
:10444000704770470004005880000058004402582C
:1044500000000258024AD36843F08073D36070476B
:104460000048025810B504460E4B18784FF47A7382
:10447000B3FBF0F30C4A1068B0FBF3F0FEF7CEFA92
:1044800068B90F2C01D901200AE0002221464FF023
:10449000FF30FEF783FA054B1C60002000E001208E
:1044A00010BD00BF5C000020640000206000002000
:1044B00010B50320FEF760FA0020FFF7D3FF10B11C
:1044C0000124204610BD0446FCF77CFFF9E70000FC
:1044D000034B1B78034A11680B441360704700BFFD
:1044E0005C000020C4020020014B1868704700BF28
:1044F000C402002038B50446FFF7F6FF0546B4F1C4
:10450000FF3F02D0044B1B781C44FFF7EDFF401B1C
:10451000A042FAD338BD00BF5C000020034A5368B4
:1045200023F4600318435060704700BF0004005834
:1045300010B41549D1F8883043F47003C1F88830BD
:10454000124B1A6842F001021A6000221A611C68BC
:104550000F48204018609A61DA611A629A62DA6242
:104560001A635A639A63DA631A645A64186820F407
:10457000802018601A66074B01221A604FF0006312
:104580008B605DF8044B704700ED00E0004402587A
:104590007FEDF6EA0881005198B108B50346D0F8DE
:1045A000140210B10020C3F8140209B1C3F81012AC
:1045B0001846012380F8FC310270FCF785FD0020CD
:1045C00008BD0220704719B1C0F8141200207047CE
:1045D0000220704708B5FCF7B3FD002008BD08B500
:1045E000D0F8143233B11B68984708B9002008BDD1
:1045F0000220FCE70220FAE708B5D0F814325B6825
:104600009847002008BD38B5044600F502752846D5
:1046100000F01DF90123C4F8F431B4F80E32C4F8E7
:10462000F83194F8081201F01F03012B0ED03BB1B2
:10463000022B10D001F080012046FCF7AEFD03E014
:104640002946204600F07DFA002038BD2946204644
:1046500000F09BFAF8E72946204600F0B2FAF3E7AB
:1046600010B5044621BB1346D0F8F421032A01D02B
:10467000002010BDD0F80C11D0F8102191420CD8B8
:10468000D0F814321B6923B190F8FC21032A00D121
:104690009847204600F07AFBEAE7891AC0F80C1127
:1046A0008A4228BF0A4692B2194600F067FBDFE74C
:1046B0000A46D0F814329B69002BD9D090F8FC112F
:1046C0000329D5D111469847D2E710B504460029F1
:1046D00046D11346D0F8F421022A05D094F80032CE
:1046E000012B39D0002010BDC169026A914219D84E
:1046F0008169B1FBF2F302FB13132BB98A4203D891
:10470000D0F8F83199421AD3D4F81432DB682BB1BF
:1047100094F8FC21032A01D120469847204600F056
:1047200040FBDBE78A1AC26192B2194600F00FFB28
:1047300000231A4619462046FCF77EFDCEE70022EC
:10474000114600F004FB0021C4F8F8110B460A469C
:104750002046FCF771FDC1E7002384F80032C1E771
:104760000A46D0F814325B69002BBBD090F8FC11DC
:104770000329B7D111469847B4E738B5044640231A
:1047800000221146FCF7EAFC4025C4F810512B46E4
:10479000002280212046FCF7E1FC2562012384F8F9
:1047A000FC31D4F818322BB1D4F814325B6821797B
:1047B00020469847002038BD01740020704790F8CB
:1047C000FC3180F8FD31042380F8FC310020704773
:1047D00090F8FD3180F8FC310020704708B590F862
:1047E000FC31032B01D0002008BDD0F81432DB6966
:1047F000002BF8D09847F6E700207047002070475C
:104800000020704708B5012280F8FC21D0F814225E
:10481000526801799047002008BD002302E001336F
:10482000DBB201300278002AF9D1184670474B8874
:10483000012B0BD110B50446C0F80432D0F8143265
:104840009B689847204600F0A1FA10BD70470B788E
:1048500003704B7843708B78CA7803EB0223438054
:104860000B794A7903EB022383808B79CA7903EBB6
:104870000223C380704710B504468021FCF78DFCED
:1048800000212046FCF789FC10BD30B583B00446FA
:104890000D464A88130A013B062B00F28180DFE8AF
:1048A00003F00413277F7F637000D0F810321B6879
:1048B0000DF10601007C9847BDF8062012B1EB8887
:1048C000002B71D103B030BD037C43B9D0F8143252
:1048D0009B6A0DF10600984702234370ECE7D0F87D
:1048E0001432DB6A0DF10600984702234370E3E7B8
:1048F000D2B2052A34D8DFE802F0030B131B232BB6
:10490000D0F810325B680DF10601007C9847D3E7C0
:10491000D0F810329B680DF10601007C9847CBE778
:10492000D0F81032DB680DF10601007C9847C3E730
:10493000D0F810321B690DF10601007C9847BBE7E7
:10494000D0F810325B690DF10601007C9847B3E79F
:10495000D0F810329B690DF10601007C9847ABE757
:104960002946FFF788FFADE7037C33B9D0F814324E
:104970005B6B0DF1060098479EE72946FFF77BFF2A
:10498000A0E7037C43B9D0F814321B6B0DF106008D
:104990009847072343708FE72946FFF76CFF91E79D
:1049A0002946FFF768FF8DE79A4228BF1A46ADF8FF
:1049B00006200146204600F0BDF983E738B50446DD
:1049C0008B88E3B9CB88D3B98D7805F07F0590F853
:1049D000FC31032B0CD080F8FE512946FCF710FC6B
:1049E000204600F0D3F935B1022384F8FC3109E008
:1049F000FFF741FF06E0012384F8FC3102E0204686
:104A0000FFF739FF38BD000038B504460D468978F8
:104A1000254B1970012909D890F8FC31022B09D0D7
:104A2000032B1CD02946FFF726FF02E02946FFF79B
:104A300022FF38BD81B14160032380F8FC31FFF7CC
:104A4000CEFD022803D0204600F0A0F9F1E7294668
:104A50002046FFF710FFECE700F098F9E9E789B18D
:104A6000436899421DD0D9B2FFF7C6FD0E4B1978A5
:104A700061602046FFF7B3FD02280DD0204600F00C
:104A800085F9D6E7022380F8FC314160FFF7B4FDD9
:104A9000204600F07BF9CCE729462046FFF7EBFEE5
:104AA000C7E700F073F9C4E7C802002008B5CB8857
:104AB000012B08D190F8FC31022B07D0032B0DD02D
:104AC000FFF7D9FE01E0FFF7D6FE08BD014600233F
:104AD00041F8083F012200F02DF9F6E70122011DFF
:104AE00000F028F9F1E708B590F8FC31023B012B02
:104AF0000CD80123C360D0F804320BB10323C36088
:104B0000022200F10C0100F015F908BDFFF7B3FE19
:104B1000FBE710B5044690F8FC31023B012B0DD8A1
:104B20004B88012B09D10023C0F80432D0F814328D
:104B30009B689847204600F029F910BDFFF79BFEBF
:104B4000FBE708B54B78092B1CD8DFE803F01218F7
:104B50001B151B09051B0F0CFFF797FE002008BD56
:104B6000FFF72CFFFAE7FFF74FFFF7E7FFF79EFF8E
:104B7000F4E7FFF7B8FFF1E7FFF759FEEEE7FFF7BD
:104B8000C8FFEBE7FFF777FEE8E738B504460D46C8
:104B900090F8FC31032B11D10B79012B0BD8D0F8F5
:104BA00014329B689847EB880BB1002038BD204633
:104BB00000F0ECF8F9E7FFF75EFEF6E7FFF75BFEC3
:104BC000F3E738B505460C468A880B7803F0600396
:104BD000202B05D1D0F814329B689847002038BDAF
:104BE000D1B26378012B30D0002B57D0032BF5D1F5
:104BF00090F8FC31022B05D0032B0FD02146FFF794
:104C00003AFEEBE7B1F1800318BF0123002908BF8A
:104C10000023002BE2D0FCF7C0FADFE763883BB942
:104C2000B1F1800318BF0123002908BF00234BB94D
:104C3000D5F814329B68214628469847284600F04C
:104C4000A5F8CBE7FCF7A9FAF2E790F8FC31022BC4
:104C500005D0032B0FD02146FFF70DFEBEE7B1F1C3
:104C6000800318BF0123002908BF0023002BB5D003
:104C7000FCF793FAB2E76388002BAFD111F07F0FF6
:104C800003D1284600F082F8A8E7FCF794FAD5F89B
:104C900014329B68214628469847F2E790F8FC3189
:104CA000022B05D0032B09D02146FFF7E4FD95E741
:104CB00011F07F0F92D0FCF770FA8FE712F0800F9F
:104CC00011D101F07F04103400EB041404342846A1
:104CD000FCF77FFA70B101232360022221462846A7
:104CE00000F028F87AE701F07F04013400EB0414A7
:104CF0000434ECE700232360EFE7D0B170B50D4634
:104D000016460446FFF789FD0130400080B230802E
:104D1000287003236B70022307E001345A1CD2B2BF
:104D2000E9540233DBB20021A95421780029F4D1DF
:104D300070BD704710B513460222C0F8F42183619C
:104D4000C3610A460021FCF769FA002010BD08B5CE
:104D500013460A460021FCF761FA002008BD10B591
:104D600013460322C0F8F421C0F80831C0F80C3112
:104D70000A460021FCF760FA002010BD08B5134672
:104D80000A460021FCF758FA002008BD08B50423A4
:104D9000C0F8F43100231A461946FCF73FFA002008
:104DA00008BD08B50523C0F8F43100231A4619469A
:104DB000FCF742FA002008BDD0F818321BB10020E1
:104DC000C3F8140270470220704710B5D0F818429B
:104DD000D0F81C325BB194F80002FF2807D09B6822
:104DE00094F8012221469847FF2384F800320020DE
:104DF00010BD00004323038000487047A40000203A
:104E00004323038000487047E800002043230380C9
:104E100000487047380100200A230380004870478B
:104E20002C01002038B50446D0F81852FCF712FACD
:104E3000C5F80C02D4F818324BB1D4F81C32DB6838
:104E400005F50371D5F804029847002038BD02200B
:104E5000FCE7000070B505460C46D0F818620B78E8
:104E600013F0600225D0202A07D1CA883AB9D0F8B9
:104E70001C329B68002248789847002070BD13F0D0
:104E8000800F0BD0D0F81C329B6831466078984771
:104E9000E28831462846FFF74DFFEEE74B7886F86B
:104EA0000032CB8886F80132CA883146FFF757FFB7
:104EB000E3E74B780A2BE0D101220249FFF73AFFE2
:104EC000DBE700BFC902002010B504468121FCF7D2
:104ED00056F901212046FCF752F982212046FCF7C1
:104EE0004EF9D4F8183253B1D4F81C325B689847A5
:104EF000D4F8180200F0F0F80023C4F818320020AB
:104F000010BD38B50446037C7BBB4FF4007302220E
:104F10008121FCF723F94FF400730222012120467E
:104F2000FCF71CF90823032282212046FCF716F91E
:104F30004FF4077000F0C8F80546C4F8180260B3D3
:104F4000D4F81C321B6898470023C5F81432C5F802
:104F50001832237CBBB14FF48073D5F804220121B1
:104F60002046FCF769F9002038BD4FF48073022217
:104F70008121FCF7F3F84FF48073022201212046CF
:104F8000FCF7ECF8CEE74FF40073D5F804220121CA
:104F90002046FCF751F90020E6E70120E4E719B1CB
:104FA000C0F81C120020704702207047D0F8183259
:104FB000C3F80812C3F8102200207047D0F8183246
:104FC000C3F8041200207047D0F818228AB108B53F
:104FD000D2F814320BB1012008BD0123C2F81432FB
:104FE000B2F81032D2F808228121FCF717F900201C
:104FF000F2E702207047D0F81822A2B108B5037C6E
:1050000043B14FF48073D2F804220121FCF714F964
:10501000002008BD4FF40073D2F804220121FCF7F0
:105020000BF90020F5E7022070470000DFF834D0CC
:10503000002103E00C4B5B58435004310B480C4BF0
:1050400042189A42F6D30B4A02E0002342F8043B8E
:10505000094B9A42F9D3FFF76BFA00F011F8FBF70E
:1050600037FD704700000220246200080000002085
:10507000E0010020A0020020308C0020FEE70000AC
:1050800070B50D4E0D4CA41BA4100025A54209D1EE
:105090000B4E0C4C00F0C4FFA41BA4100025A5422D
:1050A00005D170BD56F8253098470135EEE756F822
:1050B000253098470135F2E71C6200081C620008A1
:1050C0001C62000820620008024B0146186800F0CC
:1050D00061B800BF7C010020024B0146186800F057
:1050E0000BB800BF7C01002002440346934200D16C
:1050F000704703F8011BF9E738B50546002945D08C
:1051000051F8043C0C1F002BB8BFE41800F0DCFB86
:105110001F4A1368104633B9636014602846BDE81F
:10512000384000F0D2BBA3420CD9216862189342E8
:1051300004BF1A685B68636004BF52182260046091
:10514000ECE713465A680AB1A242FAD9196858180E
:10515000A0420BD120680144581882421960DDD169
:10516000106852685A6001441960D7E702D90C23CD
:105170002B60D3E7206821188A4204BF1168526867
:10518000626004BF091821605C60C7E738BD00BFDA
:10519000CC02002070B5CD1C25F0030508350C2D80
:1051A00038BF0C25002D064601DBA94203D90C238C
:1051B0003360002070BD00F087FB214A146821464F
:1051C00091B9204C23681BB9304600F0B9F8206033
:1051D0002946304600F0B4F8431C24D10C23336038
:1051E000304600F072FBE4E70B685B1B18D40B2B16
:1051F0000FD90B60CD50CC18304600F066FB04F19F
:105200000B00231D20F00700C31AD3D05A42E250EE
:10521000D0E78C424B6816BF636013600C46EBE727
:105220000C464968CCE7C41C24F00304A04205D016
:10523000211A304600F084F80130CFD02560DBE73A
:10524000CC020020D00200200FB40A4B13B51C681A
:1052500024B1A36913B9204600F048FA05AB049ABB
:10526000A1680193204600F05BFB02B0BDE810404E
:1052700004B070477C01002070B50E46054618B199
:1052800083690BB900F032FAAB69AC6813B92846F0
:1052900000F02CFA234B9C4217D16C68A3891B07A2
:1052A0001DD52369DBB1013EA36816F8011F013B40
:1052B000A360E9B9002B2EDA22460A21284600F025
:1052C00065F8013011D00A2011E0174B9C4201D142
:1052D000AC68E3E7154B9C4208BFEC68DEE721466B
:1052E000284600F0A5F80028DDD04FF0FF3070BD53
:1052F000002B04DAA2699A4206DC0A2904D023684A
:105300005A1C22601970CFE72246284600F03EF86A
:105310000130C9D1E9E723680A205A1C22601870BD
:10532000E5E700BFA0610008C061000880610008D7
:10533000024B01461868FFF79FBF00BF7C010020A9
:1053400038B5064C002305460846236000F05AFE97
:10535000431C02D1236803B12B6038BD2C8C002084
:1053600070B50139044602B970BD234611F8015FDA
:1053700003F8015B561E2DB91444A342F4D003F880
:10538000015BFAE71C463246EDE70000F8B50E4631
:105390001446054618B183690BB900F0A7F9214BF3
:1053A0009C422AD16C68A369A360A3891A072ED5F1
:1053B000236963B323692068C01A6369F6B2834224
:1053C000374604DC2146284600F026F928BBA368AE
:1053D000013BA36023685A1C22601E706369013080
:1053E000834204D0A389DB0719D50A2E17D12146A1
:1053F000284600F011F990B10FE00B4B9C4201D10F
:10540000AC68D0E7094B9C4208BFEC68CBE721466B
:10541000284600F00DF80028CCD04FF0FF37384672
:10542000F8BD00BFA0610008C061000880610008ED
:10543000324B70B51D6806460C4625B1AB6913B9F1
:10544000284600F053F92E4B9C420FD16C68B4F9FA
:105450000C309AB215072CD4D00611D40922326030
:1054600043F04003A3814FF0FF303EE0254B9C42C8
:1054700001D1AC68EBE7244B9C4208BFEC68E6E73F
:10548000510712D5616B41B104F14403994202D036
:105490003046FFF731FE00236363A38923F0240322
:1054A000A3810023636023692360A38943F0080379
:1054B000A38123694BB9A38903F42073B3F5007F5B
:1054C00003D02146304600F0BFF9A28912F0010353
:1054D0000CD00023A36063695B42A361236953B9C5
:1054E000B4F90C3013F08000BAD170BD920758BFE8
:1054F0006369A360F2E70020F7E700BF7C010020AA
:10550000A0610008C0610008806100088A892DE957
:10551000F041054610070C4658D44B68002B05DCBB
:105520000B6C002B02DC0020BDE8F081E66A002E47
:10553000F9D0002312F480522F68216A2B6032D0F8
:10554000606DA3895A0705D56368C01A636B0BB1F8
:10555000236CC01A00230246E66A216A2846B04737
:10556000431CA38906D129681D2948D8294ACA4065
:10557000D60744D500226260D9042269226004D58E
:10558000421C01D12B6803B96065616B2F60002953
:10559000C9D004F14403994202D02846FFF7ACFD7C
:1055A00000206063C0E701232846B047411CC8D1F2
:1055B0002B68002BC5D01D2B01D0162B01D12F60DD
:1055C000B1E7A38943F04003A381ADE70F69002F42
:1055D000A9D093070E6808BF4B690F6018BF00235E
:1055E000A6EB07088B60B8F1000F9CDD43463A46F6
:1055F000216AA66A2846B047002806DCA38943F042
:105600004003A3814FF0FF308EE70744A8EB00086A
:10561000E9E700BF0100402038B50B6905460C469C
:10562000DBB118B183690BB900F060F80C4B9C42F8
:1056300009D16C68B4F90C307BB121462846BDE82D
:105640003840FFF763BF074B9C4201D1AC68F1E7DC
:10565000054B9C4208BFEC68ECE7002038BD00BF5A
:10566000A0610008C061000880610008002310B537
:105670000446C0E90033836081814366C281C0E98A
:1056800004338361194608225C30FFF72DFD054B7A
:105690006362054BA362054BE362054B24622363FF
:1056A00010BD00BF5D5E00087F5E0008B75E0008A9
:1056B000DB5E0008014900F085B800BF19560008FC
:1056C00070B54A1E682555430E4605F17401FFF773
:1056D00061FD044640B10021C0E900160C30A06015
:1056E00005F16802FFF700FD204670BD836910B523
:1056F000044633BBC0E912330365124B124A1B68E0
:105700008262984204BF0123836100F01FF8606049
:10571000204600F01BF8A060204600F017F8002299
:10572000E06004216068FFF7A1FF01220921A06861
:10573000FFF79CFF02221221E068FFF797FF012389
:10574000A36110BD7C610008B5560008F8B51B4B7D
:105750001E68B369074613B93046FFF7C7FF4836DE
:10576000D6E90134013B03D5336833B13668F7E736
:10577000B4F90C506DB16834F4E704213846FFF7F2
:105780009FFF30600028F1D10C233B600446204687
:10579000F8BD0B4B6566C4E90055A560C4E9033547
:1057A000C4E905550822294604F15C00FFF79CFC7A
:1057B000C4E90D55C4E91255E9E700BF7C61000852
:1057C0000100FFFF2DE9F8438046894600F14804B7
:1057D000002614B93046BDE8F883D4E90175013FCD
:1057E00001D52468F5E7AB89012B07D9B5F90E304F
:1057F000013303D029464046C84706436835EEE7E3
:1058000070B50E46B1F90E10002996B014461D462B
:1058100007DA00232B60B3891A0610D44FF4806393
:105820000EE06A4600F080FB0028F2DB019A02F4E9
:105830007042A2F500535A425A412A60EEE74023D3
:105840000020236016B070BD8B8973B59D07064696
:105850000C4607D504F147032360236101236361EC
:1058600002B070BD01AB6A46FFF7CAFF009905465A
:105870003046FFF78FFC48B9B4F90C309A05EFD4E5
:1058800023F0030343F00203A381E3E70D4BB3626C
:10589000A389206043F08003A381009B6361019B87
:1058A00020615BB1B4F90E10304600F04FFB28B117
:1058B000A38923F0030343F00103A381A3891D43BC
:1058C000A581CDE7B5560008704770479368013B46
:1058D000002B10B4936008DA9469A34201DB0A2913
:1058E00003D15DF8044BFFF751BD1368581C1060DD
:1058F000197008465DF8044B7047F8B506460F4628
:105900001446D518AC4201D1002007E03A4614F8FD
:10591000011B3046FFF7DAFF431CF3D1F8BD00004E
:105920002DE9F04F0C469DB017461D46064618B1AE
:1059300083690BB9FFF7DAFE7C4B9C4258D174683F
:10594000A38918075ED52369002B5BD00023099338
:1059500020238DF8293030238DF82A3003954FF01D
:10596000010BB846454615F8013B0BB1252B54D128
:10597000B8EB070A0BD053463A4621463046FFF7AC
:10598000BCFF013000F0C280099B5344099398F892
:105990000030002B00F0BA8000234FF0FF32CDE939
:1059A0000523049307938DF853301A93A8460522D4
:1059B00018F8011B5E48FAF7A3FC049B78BBD906D4
:1059C00044BF20228DF853201A0744BF2B228DF8A4
:1059D00053202A782A2A2AD0079AA84600200A2586
:1059E000414611F8013B303B092B69D960B324E0F3
:1059F000504B9C4201D1B468A2E74F4B9C4208BF78
:105A0000F4689DE721463046FFF712FD00289DD03F
:105A10004FF0FF301DB0BDE8F08FA846A2E7444A22
:105A2000801A0BFA00F0184304904546BEE7039A2B
:105A3000111D12680391002A01DB079204E0524213
:105A400043F002030792049398F800302E2B0ED1F6
:105A500098F801302A2B38D1039B1A1D1B6803923A
:105A6000002BB8BF4FF0FF3308F102080593334D08
:105A700098F8001003222846FAF742FC40B1402370
:105A8000401B03FA00F0049B034308F10108049350
:105A900098F800102A488DF82810062208F101070E
:105AA000FAF72EFC002837D0264B1BBB039B07338D
:105AB00023F0070308330393099B4B44099350E7F2
:105AC00005FB0232012088468AE7002308F101081D
:105AD000059319460A25404610F8012B303A092A49
